:020000040800F2
:10000000E01500209D010008C3010008C50100089B
:1000100000000000000000000000000000000000E0
:10002000000000000000000000000000C701000800
:100030000000000000000000C9010008B53C0008F5
:10004000CD010008CD010008CD010008CD01000858
:10005000CD010008CD0100086D100008CD01000899
:10006000CD010008E10F0008F10F0008CD010008E4
:10007000CD010008CD010008CD010008CD01000828
:10008000CD0100080000000000000000CD010008C4
:1000900000000000CD010008CD010008CD010008DE
:1000A00000000000CD010008CD010008CD010008CE
:1000B000CD01000800000000CD010008CD010008BE
:1000C00000F002F800F03EF80CA030C80838241800
:1000D0002D18A246671EAB4654465D46AC4201D180
:1000E00000F030F87E460F3E0FCCB6460126334274
:1000F00000D0FB1AA246AB4633431847904B000092
:10010000B04B0000103A02D378C878C1FAD8520731
:1001100001D330C830C101D504680C6070470000BD
:100120000023002400250026103A01D378C1FBD813
:10013000520700D330C100D50B6070471FB51FBDFB
:1001400010B510BD00F0F4F91146FFF7F7FF04F009
:1001500011FC00F00CFA03B4FFF7F2FF03BC00F04F
:1001600013FA000070B505460C46164602E00FCCA7
:100170000FC5103E102EFAD2082E02D303CC03C5B1
:10018000083E042E07D301CC01C5361F03E02178B9
:100190002970641C6D1C761EF9D270BD0F4880F367
:1001A00008880F480168090E0E4A914205D10E4891
:1001B0000E4901600E480F4901600F4880470F4803
:1001C0000047FEE7FEE7FEE7FEE7FEE7FEE700008A
:1001D0000B480C490A4A0C4B70470000E015002000
:1001E000040000001F000000181002400100000081
:1001F0000000014000000000353D0008C10000087B
:10020000E0110020E0150020E0110020FEB50546B9
:1002100010460C46184373D0AE468C460020AD1AEB
:1002200001469C4167D36646002701243D46B61A25
:100230009D4102D313463A462124654676462F0453
:10024000360C3E432D0CB61A9D4104D3150C1B04ED
:100250002B4312041034654676462F06360A3E4379
:100260002D0AB61A9D4104D3150E1B022B43120210
:100270000834654676462F0736093E432D09B61ADF
:100280009D4104D3150F1B012B431201241D65460C
:100290007646AF07B6083E43AD08B61A9D4104D373
:1002A000950F9B002B439200A41C65467646EF07F2
:1002B00076083E436D08B61A9D411AD392185B41E9
:1002C000641C16E00018764665464941B71A9D4100
:1002D0000191009009D36046B11A98418E46844638
:1002E000009801990025401C6941DD0752082A4306
:1002F0005B08641EE6D57246634603B0F0BDFFE7B7
:1003000000200146C046C0462A462346F5E7F8B518
:10031000042A2CD3830712D00B78491C0370401C8D
:10032000521E83070BD00B78491C0370401C521ED1
:10033000830704D00B78491C0370401C521E8B07A6
:100340009B0F05D0C91ADF002023DE1B08C90AE075
:10035000FFF708FFF8BD1D4608C9FD401C46B44024
:100360002C4310C0121F042AF5D2F308C91A521EDA
:10037000F0D40B78491C0370401C521EEAD40B7851
:10038000491C0370401C012AE4D409780170F8BDAF
:1003900001E004C0091F0429FBD28B0701D50280AC
:1003A000801CC90700D00270704700290BD0C3071A
:1003B00002D00270401C491E022904D3830702D5D3
:1003C0000280801C891EE3E70022EEE70022DFE7BF
:1003D000002203098B422CD3030A8B4211D3002342
:1003E0009C464EE003460B433CD4002243088B421C
:1003F00031D303098B421CD3030A8B4201D39446A9
:100400003FE0C3098B4201D3CB01C01A524183099B
:100410008B4201D38B01C01A524143098B4201D355
:100420004B01C01A524103098B4201D30B01C01A80
:100430005241C3088B4201D3CB00C01A52418308FA
:100440008B4201D38B00C01A524143088B4201D327
:100450004B00C01A5241411A00D201465241104687
:1004600070475DE0CA0F00D04942031000D34042FC
:10047000534000229C4603098B422DD3030A8B4232
:1004800012D3FC22890112BA030A8B420CD38901D0
:1004900092118B4208D3890192118B4204D38901B6
:1004A0003AD0921100E08909C3098B4201D3CB01F4
:1004B000C01A524183098B4201D38B01C01A5241A9
:1004C00043098B4201D34B01C01A524103098B42AD
:1004D00001D30B01C01A5241C3088B4201D3CB0098
:1004E000C01A524183088B4201D38B00C01A52417B
:1004F000D9D243088B4201D34B00C01A5241411A52
:1005000000D20146634652415B10104601D340427F
:10051000002B00D54942704763465B1000D3404230
:1005200001B50020C046C04602BD70477047704705
:10053000754600F025F8AE46050069465346C008EA
:10054000C000854618B020B5FFF742FE60BC00270A
:100550004908B6460026C0C5C0C5C0C5C0C5C0C58F
:10056000C0C5C0C5C0C5403D49008D46704710B5E7
:100570000446C046C0462046FFF7EDFD10BD000012
:10058000004870478011002001491820ABBEFEE7EB
:1005900026000200704770B504460068816849076C
:1005A00024D5816810264907002905DA8168890762
:1005B00002D481683143816001F0B4FD054611E049
:1005C00001F0B0FD401B02280CD92068806840076C
:1005D00008D5A06B3043A063E06B01210843E063C2
:1005E000084670BD206880684007E9D4002070BDCF
:1005F00010B50146406A826B50231A420AD1816BC2
:1006000001225202114381630168CA681205920FE8
:1006100005D020E0006B026B0846904710BD827E3B
:10062000002A18D10A68120715D58A6853070122D3
:10063000002B09DB4B680C24A3434B60816B130236
:1006400099431143816306E0816B20231943816341
:10065000C16B1143C16301F00DF910BD10B5406AC3
:10066000816B402211438163C16B04221143C1633A
:1006700001F018F910BD10B5406A01F007F910BD7E
:10068000F8B50446006881688907890F01292CD1D3
:100690000168C90702D1C168090426D5816805220D
:1006A000114010250126012913D18168022211432E
:1006B000816021680320086001F034FD074610E0E6
:1006C00001F030FDC01B02280BD920688068C007EC
:1006D00007D0A06B2843A063E06B3043E0630120A8
:1006E000F8BD20688068C007EAD10020F8BD00008E
:1006F000F8B5044600200090206881688907890FBA
:10070000012905D10168C90731D1C16809042ED476
:100710008168184A10261140012500291AD18168E4
:1007200029438160154814490068FFF751FE00E035
:10073000401E00900028FBD101F0F4FC074611E0B8
:1007400001F0F0FCC01B02280CD920680068C043EF
:10075000C00707D0A06B3043A063E06B2843E06381
:100760000120F8BD20680068C043C007E8D1002020
:10077000F8BD00001700008040420F00E00000209C
:1007800010B5104C01202070032161700F21A17061
:100790000221E1702071617101F0C4FCA06002F0DF
:1007A00003FE00F0A1FE02F0AFFD03F09BFD00F0A0
:1007B00093F9607900F0A0F903A002F0DDFE03F0E8
:1007C00003FA10BD000000204D504C542056303329
:1007D0002052454144593B203637204C4544733B19
:1007E000204E454320757365723D30302046460DDE
:1007F0000A000000FEB502F093FE02E0684602F037
:10080000BDFC684602F0ACFD0028F7D100F07CF991
:1008100003F09CFD01F086FC054602F0D9FD029034
:1008200002F0BCFD314C0746A069012687420AD080
:10083000A76126712EA002F09FFE384602F05AFEF4
:1008400031A002F099FE02980027002823D02079D9
:10085000002806D1207800281DD0A068281A142866
:1008600019D3A0682A1A642A00D9642220780028A3
:1008700004D0264BE178607800F0FEFB2078002859
:1008800001D0A17800E00021204802F0BFFD00283F
:1008900001D02771A56060697D21281AC9008842AE
:1008A00015D36561A67103F0A5FC00F03FF802F0D6
:1008B00025FDE1690646884209D015A0E66102F0EF
:1008C0005BFE304602F016FE0FA002F055FEA07946
:1008D000002808D06069FF21281AF531884202D328
:1008E000A77100F03DF902F01BFEFEBD00000020E4
:1008F0004C454420444D41204552524F5220636F95
:10090000756E743D000000000D0A0000E400002038
:10091000495220494E56414C49442F4F5645524664
:100920004C4F5720636F756E743D000010B52AA0C0
:1009300002F022FE00F0B8F829498000085802F0C1
:100940001BFE28A002F018FE00F07AF802F0D2FD9B
:1009500026A002F011FE00F091F802F0CBFD25A0D8
:1009600002F00AFE00F096F802F0C4FD24A002F0A6
:1009700003FE00F027FA02F0BDFD23A002F0FCFD0B
:1009800000F06AF902F0B6FD21A002F0F5FD00F0DA
:1009900075F902F0AFFD20A002F0EEFD00F056F870
:1009A00002F0A8FD1EA002F0E7FD00F05BF802F0E7
:1009B000A1FD1DA002F0E0FD00F05AF802F09AFD42
:1009C0001BA002F0D9FD00F047F802F093FD1BA038
:1009D00002F0D2FD10BD0000415544494F200000F7
:1009E000CC49000820414D503D000000204C4556A8
:1009F000454C3D00204C4556454C393D000000001B
:100A0000204C4F573D0000002042473D00000000B1
:100A10002042454154533D0020424941533D00008E
:100A200020434C49503D0000204552523D000000FB
:100A300020424C4F434B533D000000000D0A000084
:100A40000148C088704700008C00002001480089E0
:100A5000704700008C0000200148006970470000CA
:100A60008C00002001484089704700008C00002065
:100A700001488069704700008C00002010B500F02C
:100A800013F8012801D0002010BD0148007910BDE5
:100A90008C00002010B500F007F8012801D00020DC
:100AA00010BD00F095F910BD70B50A4CE56801F075
:100AB00039FB6178002905D12178002902D0401B3B
:100AC000642801D9022070BDA0780028FBD0012045
:100AD00070BD00008C00002010B506480221C170D6
:100AE0000021816101610121C902018103F02EF819
:100AF00010BD00008C000020042800D9042001490A
:100B0000C87070478C00002070B5134CE66801F087
:100B100009FB05462078002812D06078002807D10C
:100B2000A81B642804D80D4800680068C00607D5D3
:100B30000120607003F0AAF8A0696561401CA06103
:100B40002078002807D160697D21281AC9008842D1
:100B500001D302F0FBFF70BD8C000020380C002098
:100B600000B587B0684600F0C5F924A002F004FD86
:100B70006846C07D02F0BEFC24A002F0FDFC009897
:100B800002F0B8FC23A002F0F7FC019802F0B2FCDE
:100B900022A002F0F1FC029802F0ACFC21A002F0CD
:100BA000EBFC6846807D02F0A5FC20A002F0E4FC8E
:100BB0006846808902F09EFC1EA002F0DDFC6846BB
:100BC000C08902F097FC1DA002F0D6FC6846008A9E
:100BD00002F090FC1BA002F0CFFC6846408A02F0B5
:100BE00089FC1AA002F0C8FC6846808A02F082FCE8
:100BF00018A002F0C1FC07B000BD000042454154FE
:100C00002057494E2056414C49443D002050454113
:100C10004B3D00002054483D000000002042473D6D
:100C2000000000002053454E533D00002048495429
:100C30003D0000002042454C4F573D002052495393
:100C4000453D00002041524D3D000000204C4F43E7
:100C50004B3D00000D0A00000148C06970470000CC
:100C6000AC000020EFF3108072B60021024A9170B0
:100C700080F3108870470000AC0000200148406AF3
:100C800070470000AC000020F3B54A4E81B0B76950
:100C90000446B188002915D07069FFF799FB00213F
:100CA000B180381840087161B061042C00D9042467
:100CB00041486100455A3078102804D2B169F16189
:100CC000401C3070FEBD3C480A30405A3949C96961
:100CD00048436421FFF77CFB46193848C07D002853
:100CE00005D0364801683348806981420AD23149CB
:100CF0008A69324802604660C9698160641C8475F3
:100D00000121C1752B4CA069A84208D9E069822154
:100D100048436421FFF75CFBA169884201D30120AD
:100D20006070A069B04201D8012017E0A808A1694D
:100D3000C019401C884201D302200FE060780028CF
:100D400009D0E078002808D00298216A401A962835
:100D500003D2042002E0032000E0002017494200F3
:100D600051188A89164B9A4202D28A89521C8A816A
:100D7000002809D1029820620120E070A070606A0A
:100D8000401C606200206070A069E169884207D958
:100D9000A069E169401A1F30E1694009401806E086
:100DA000E069A169401A1F30E1694009081AE06151
:100DB000FEBD0000AC000020784B0008200C002095
:100DC000FFFF00000148806970470000AC00002070
:100DD00010B5EFF3108472B601F0A4F90C490A6A59
:100DE000801A8A78962804D30020887084F31088AB
:100DF0000CE084F31088002A08D09621081A01021A
:100E0000081A9621FFF7E4FAC0B210BD002010BD09
:100E1000AC000020010210B515488368CA1AD20040
:100E2000D417240EA2181212D218891A8260C2682E
:100E30004523891A5943CB171B0E591809128918D3
:100E4000C16002694523891A5943CB171B0E5918F3
:100E500009128918CA17120E016151180912494363
:100E600042690909891841618188491C818010BD46
:100E7000AC00002000B51C4887B000210161C160B2
:100E8000816001708180416141620162C161816163
:100E9000C17081700121417018216846FFF796FAF0
:100EA000182212496846FFF75DF911480099016060
:100EB0000199416002998160694689898181694609
:100EC000C989C1816946098A01826946498A418284
:100ED0006946898A81826946897D81756946C97DAD
:100EE000C17507B000BD0000AC000020604B0008D9
:100EF000200C002030B587B0EFF3108572B61E4C81
:100F00002168016061684160A1688160A189818177
:100F1000E189C181218A0182618A4182A18A81821B
:100F2000A17D8175E17DC17518216846FFF74EFAF4
:100F3000182212496846FFF715F9009820600198B9
:100F400060600298A06068468089A0816846C08978
:100F5000E0816846008A20826846408A608268464E
:100F6000808AA0826846807DA0756846C07DE07555
:100F700085F3108807B030BD200C00208C4B000892
:100F800037B582B06946087A1446FF210D1B6946C1
:100F9000097B684361434018FF21FFF719FA69464E
:100FA0000870487A497B684361434018FF21FFF786
:100FB0000FFA69464870887A897B68436143401814
:100FC000FF21FFF705FA020669460888120A104356
:100FD00005B030BD0920C00600694007C00F70474A
:100FE00010B5024800F044FE10BD0000780C00204F
:100FF00010B5034800F03CFE024800F039FE10BD79
:10100000940D0020D80D002010B504460068054955
:1010100040181421FFF7DCF9800020640248E063E7
:1010200010BD0000F8FFFDBF0000024030B5056CA8
:101030000124AC40C56B6C60046863604368102B8E
:10104000036803D099600068C26030BD9A60006890
:10105000C16030BD04490A68516A89B2536A5B1A9B
:101060009BB28342FAD370474C0D002010B5082084
:1010700000F074FF10BD0000FFB5044683B00020EF
:10108000009004981E46042801D904200490FD4FC6
:10109000FD4DFE49062C1CD0072C60D0082C6DD0CD
:1010A0002846FB4F8068092C7CD0049A8A5C0599FD
:1010B0004A43101829468860012C74D0022C73D042
:1010C000032C72D0042C71D0002128460D4681607B
:1010D00016E1085C05994843E968401803E000F010
:1010E00089FAE868A038E860A028F8D2E94D002421
:1010F0006000395CC01940781B2250434019085CDD
:10110000552806D2410040186946087100204871F0
:101110000AE0AA280AD2FF2269460A71553841001E
:101120004018694648710020887106E0FF216A4630
:10113000117140005171AC3090716946888889798D
:10114000032209040843029060002018801902A9B4
:10115000FFF7DDF8641C432CCAD307B0F0BD02F0E2
:10116000D5FF0024009060002018801903226946F2
:10117000FFF7CDF8641C432CF5D3EEE7FFF77EFCB8
:10118000059903F033FB00246000C0194578FF2166
:101190002846FF3148430721FFF71AF9FF2806D2F6
:1011A000014605E022E043E078E096E09DE0FF2183
:1011B0006A461170FF2801D2FF2002E0FF21FF31B3
:1011C000081A507000209070AF481830415D0098A8
:1011D00002F090FC0190600020188019032201A900
:1011E000FFF795F8641C432CCED3B6E70599401859
:1011F0003946FFF7EDF8A960FFF74CFC04460321E0
:10120000A868490248433946FFF7E2F802F0F4FBC8
:10121000214602F06FFC0024009060002018801925
:1012200003226946FFF773F8641C432CF5D394E757
:101230009949954DFFF7CCF80846A9607D218901B1
:10124000FFF7C6F805460F46400029188F480322CD
:10125000401D09186846FFF75AF87D204001874273
:1012600039D3391A0A02521A01461046FFF7B0F86C
:1012700002F05CFC07460721681CFFF7A9F848004C
:10128000091882480322401D091801A8FFF73FF8FA
:101290003A4601990098FFF773FE1BE039467A4DF4
:1012A000FFF796F87D48A960814200D3791A0A02B7
:1012B000521A01461046FFF78BF802F037FC7349CB
:1012C00005460322891F01A8FFF721F82946019846
:1012D00002F010FC0090002579E07D21C9016A4DE3
:1012E000FFF776F8A96000250DE06D49664DFFF720
:1012F0006FF8A96000251EE0032C04D0042C1AD03E
:10130000052C5FD063E0032128464902484343216E
:10131000FFF75EF807465C480321806849024843AE
:101320007D21C901FFF754F80321381A49024018FA
:1013300002F062FB44E05448FF2141318068FFF72E
:1013400047F80F46002269468A704A700A70411CAD
:101350008D421AD13846B4214843FF214131FFF76D
:1013600037F8694608703846DC214843FF2141318F
:10137000FFF72EF8694648703802FF21C01B413143
:10138000FFF726F86946887021E085421FD8401B88
:101390000C281CD2FF2141314843C219B4216846B0
:1013A0000170DC214170FF2181700F210902881A30
:1013B0000202101AFFF70CF80146009802F09AFB9F
:1013C000009004E00021684681704170017068005F
:1013D0002818801903226946FEF799FF6D1C432DDA
:1013E0008AD3052C00D0B8E62748007800281DD104
:1013F0000024284F02F02AFB4321FEF7E9FF0620D4
:1014000025464543795302F021FB7D214901FEF732
:10141000DFFF4B2040010918E81981800021641C7E
:101420004180082CE6D318480121017000250620D0
:10143000294641431748049A0C1814486188805C77
:10144000059A50430818A188814210D802F0FEFA8C
:101450004321FEF7BDFF218002F0F8FA7D2149010A
:10146000FEF7B6FF4B2040010818A08000206080E6
:10147000FF22FF32A1885043FEF7AAFFFF2813D9AD
:10148000FF210FE0CD4A000830000020ED490008A0
:10149000E02E0000FA080020C0DA000070170000FB
:1014A000C0620000FF31081A02F040FB0746032229
:1014B0000C4901A8FEF72BFF3946019802F01AFBF0
:1014C000009068460178208842008018325C914282
:1014D00004D9801903226946FEF719FF6D1C082DF7
:1014E000A5D33AE6EA49000870B50F4D0024AC6078
:1014F000FFF7B8FB2946103100200A460832EC609D
:101500000C541454401C0828FAD3084B00201B220A
:1015100000214243D2185454491C1B29FBD3401CC0
:101520000828F4D32C7070BD30000020FA08002089
:1015300072B6FEE7F8B500202B4C2C4F2070082621
:1015400001467B5C002205465D40ED07ED0F40083B
:10155000002D01D08C256840521C5B08D2B2082AAD
:10156000F1D3491CC9B2B142EBD3204903230A7A13
:10157000904201D06370F8BD08799F22054615405E
:1015800004221F2D10D14D780E7840062902800FBD
:101590001B1A501F31439840084005B23720000104
:1015A00013492818884201D36270F8BDE580A078FD
:1015B000002803D002F0ACFE002801D0280107E08B
:1015C000A1692801401AC217920F10188010401804
:1015D0000125A061A57000F0A5FD20616069401C97
:1015E00060616570F8BD000070000020140B0020E1
:1015F000410B0000F8B50725002405E0002C03D0BE
:10160000611E1A2C05D11CE01B20204A684321468C
:101610008618601C711830182039203849794079B3
:10162000091830192038407940000818870802F05E
:101630000DFA1421FEF7CCFE08318F4203D9781A37
:1016400002E02046E6E700203055641C1B2CD5D371
:101650006D1ED1D100240D4D02F0F8F96421FEF782
:10166000B7FE122906D202F0F1F94621FEF7B0FECC
:10167000463105E002F0EAF94221FEF7A9FEBE314B
:101680002955641C1B2CE7D3F8BD0000FA08002084
:10169000F8B5054604462035287D0026012808D0E7
:1016A00001202875206881688907890F012908D1E0
:1016B00001E00220F8BD0168C9073CD1C1680904F6
:1016C00039D4A16BFF220132914302221143A1635D
:1016D000C1688907890F0091C16889088900C160C4
:1016E0002068816892071143816000F01BFD074666
:1016F00012E000F017FDC01B02280DD92068806899
:10170000002809DAA06B0221884310210843A06356
:10171000002028750120F8BD206880680028E8DBDB
:101720002068C168009A1143C160A06B80088000E6
:10173000401CA06304E0A06B20210843A0630126A5
:10174000002028753046F8BDF8B500250446203441
:101750000095227D012A3BD00122227503689E68F4
:10176000760776D43F4F4E68BE4254D09E6A0F78BB
:10177000BA4016439E620123C26A1B079A421FD0D9
:10178000012A1DD0022A1BD0032A19D0042A17D0FF
:10179000052A15D0062A13D0072A11D002688B68B3
:1017A00056697607760FB3420AD05369DB08DB002F
:1017B0005361006842690B7A5B075B0F1A43426111
:1017C0000868102806D0112804D0122802D045E05D
:1017D0000220F8BD244A9368102809D011280AD0A5
:1017E00001200006034393600868102806D035E006
:1017F0000120C005F6E701208005F3E71C481B49DE
:101800000068FEF7E5FD0A21484300E0401E009015
:101810000028FBD122E0986A0E78B240904398628B
:101820000868102803D0112801D0122816D10E49BB
:101830008A68102807D0112808D0012000068243AA
:101840008A600BE005E00120C005F8E70120800573
:10185000F5E7816B2022114381630125002020756B
:101860002846F8BD011000000027014040420F004B
:10187000E000002010B500680349884202D14020F2
:1018800001F0F6FF10BD00000024014010B5006813
:101890000349884202D1002001F0EAFF10BD000098
:1018A0000024014010B500680549884206D105486A
:1018B0000121417000210171FFF7D4F910BD000032
:1018C000002401408C000020F8B5002604460028C2
:1018D00005D0A06B25462035002802D007E0012066
:1018E000F8BD0020E0632875204600F0A9F8A06B41
:1018F0001022C006002870DB2068816849076CD47C
:10190000A16B1301994302231943A16381688907DD
:10191000890F012905D10168C9070FD1C1680904E0
:101920000CD4C16818239943A3681943C160206887
:101930000169636889008908194301612068C168E9
:101940003D4B1940C160207E617E8003C90308437E
:10195000A17E4B031843A36A012B02D001231B0372
:1019600000E000231843E36818432369022B09D0E1
:10197000002318432B79E57E5B0018430123012DDA
:1019800002D00AE00423F4E7002927D0A16B202528
:101990002943A163E16B1943E163E1690D46FF3D12
:1019A000C23D02D0256A294308432168CD6805431A
:1019B000CD600125E16A2D07A94213D0012911D07C
:1019C00002290FD003290DD004290BD0052909D0F5
:1019D000062907D0072905D010E028E001210904D5
:1019E0000843DAE721684D69ED08ED004D61216893
:1019F0004D69A78D7F077F0F3D434D612168C96801
:101A00000E4D2940814207D10020E063A06B800881
:101A10008000401CA06308E0A06B022188431043B3
:101A2000A063E06B1843E06301263046F8BDA06B6D
:101A30001043A063F8E700001902FEFFE7FF3F83B1
:101A400070B586B0054614216846FEF7BFFC1C49F8
:101A50002868884231D11B498A69401502438A614E
:101A60008A69024005924A69000202434A61496953
:101A700000260140059101200090032001900920DB
:101A800069460296C00600F075FA0F480F4C41C433
:101A90008020266060604000A0608000E060202020
:101AA0002061C00160610948083C00F02FF900285E
:101AB00001D0FFF73DFD2C63656206B070BD0000EC
:101AC000002401400010024008000240780C002071
:101AD000F7B5044600680025806840073DD42646D7
:101AE0002036307D01280AD001273775607E012815
:101AF00007D02046FEF7FCFD050002D02EE00220B4
:101B0000FEBDA06B16490840FF2101310843A063C8
:101B10000020E0633075216B12488862216B124807
:101B2000C862216B1148086321681C200860206886
:101B300041681022114341602068C1683943C16087
:101B40002168206B4031029B019A00F009F920685E
:101B5000816804221143816000E002252846FEBD11
:101B6000FEF1FFFFF1050008770600085D0600089A
:101B7000F8B5064604462036307D012807D00127F7
:101B800037752046FEF707FD050002D028E0022049
:101B9000F8BD2068C16849084900C160206B212157
:101BA000095C022907D100F01FF8050003D0A06BE3
:101BB00040210843A063206841681022914341609E
:101BC000002D204602D0FEF75BFD09E0FEF758FD30
:101BD000050005D1A06BFF21013188433843A06384
:101BE000002030752846F8BD30B5014620314B78CD
:101BF0000022022B04D0042383630A70012030BD2D
:101C000003681C680E25AC431C6003681C686408EC
:101C100064001C600123056C1C46C06BAC40446032
:101C20004B700A70002030BD70B500240146203191
:101C30004A78022A03D004218163012416E0026855
:101C400013680E25AB431360026813685B085B00E2
:101C500013600122056C1346AB40C56B6B604A7084
:101C600000220A70416B002900D08847204670BDD1
:101C7000F0B4C16B0D6801680C680422066C134651
:101C8000B3402B420DD063070BD50B689B0602D4E3
:101C90000B6893430B60016C8A40C16B4A60C16A58
:101CA00019E00227B74002462F4001232032002FBF
:101CB00015D0A70713D50C68A40604D40C680A2510
:101CC000AC430C605370036C02219940C36B5960A4
:101CD00000211170816A002916D0F0BC084708273E
:101CE000B7402F4210D024070ED50C680E25AC4308
:101CF0000C60046C1946A140C46B6160836353702F
:101D000000211170016BE6E7F0BC704770B504006C
:101D100021D00221204620300546417022681168FA
:101D20000E48A3680140606826691843E36833439E
:101D3000184363691843A3691843E36918430843C8
:101D400010602046FFF760F90021A1630120687050
:101D50002970084670BD012070BD00000FC0FFFF54
:101D6000F8B504468C46203001780025012909D0B9
:101D70000126067041780027012905D00770022549
:101D80002846F8BD0220F8BD02214170A7632068F3
:101D9000016849084900016061462046FFF746F99D
:101DA000E06A00282068016802D00E22114306E094
:101DB0000A221143016020680168042291430160F6
:101DC0002068016831430160DAE70000F8B50828AF
:101DD00031D15E4C207900282DD000F0A3F90646C1
:101DE0005B480068406A082187B20920C00600F0FD
:101DF0008DF9012800D0002021890025791A8AB2A6
:101E0000E168711A0F2907D92178002903D0A16947
:101E1000491CA161E5702570E660278127780121C2
:101E20003B0002F077FD070509132933516E880046
:101E3000002800D12170F8BD00287CD07D218901C7
:101E4000521A89108A4276D802207BE0002872D18B
:101E5000404953187D2109018B4204D8032020708A
:101E600025616570F8BDE121C900511A7D22D200BB
:101E7000914260D8062065E000285CD0FF21FF3A3F
:101E8000C3315F3A8A4256D804205BE0002852D121
:101E90004B231B01E126D31AB600B34205D8607864
:101EA000814020690143216104E02B49FF3A5F3AF8
:101EB0008A4240D86078401CC0B26070202801D0AF
:101EC00003203FE005203DE0002834D0FF23FF3A07
:101ED000C3335F3A9A422ED82269FF2793B23F025A
:101EE000BB4228D113021B0E120E5A40FF2A22D1E8
:101EF000A3706661E17018463246002101F046FD8C
:101F000017E0002817D0FF21FF3AC3315F3A8A4219
:101F100011D8E07800280BD06069301AB42807D8AF
:101F200032460121A07801F031FD666101E002E056
:101F3000E5702570F8BDA169491CA161E570002814
:101F400002D000202070F8BD0120FBE750000020E7
:101F50004C0D002054F2FFFF2602000010B504498A
:101F60004A69024202D04861FFF730FF10BD00000D
:101F700000040140F8B5002303240125B5E02E46F6
:101F80009E40B44632407CD00E79B607B60F012E83
:101F900001D0022E17D186682746B6465E00B740AC
:101FA00000967646BE43B646CF68009EB74076465A
:101FB0003743876046686746BE430F79FF06FF0FC9
:101FC0009F40374347600E79F643B6070ED0C66888
:101FD0002746B4465E00B646B7406646BE43B446A2
:101FE0008F687646B74066463743C7600E79B607B6
:101FF000B60F022E14D1DE08B60036180096366AE7
:102000005F07B446FE0E0F27B646B7406646BE438E
:10201000B4460F697646B74066463743009E37623E
:1020200006682746B4465E00B646B7406646BE43DD
:102030000F79B446BF07BF0F7646B74066463743B1
:1020400007604E68B603B60F4ED02B4FBE692E43C5
:10205000BE61BE699F08F607F60F284EBF00BE1985
:102060000096B6680F27B4469E07360FB646B740AF
:102070006646BE430927FF06B446B84202D1002790
:102080000BE031E01E4FB84201D1012705E01D4FA2
:10209000B84201D1022700E005277646B7406646E0
:1020A0003743009EB760184EB6684F689643FF02EC
:1020B00000D51643144FBE60FE684F689643BF02BA
:1020C00000D51643104FFE607E684F689643BF03ED
:1020D00000D516430C4F7E603E684F689643FF0361
:1020E00000D51643084A16605B1C0A681646DE4097
:1020F00000D044E7F8BD000000100240000001409D
:10210000000400480008004800040140006908403D
:1021100000D001207047002A01D0816170478162A0
:10212000704700000148806870470000D40000201C
:10213000024881680278891881607047D4000020C5
:1021400010B506480168102211430160032000F019
:1021500007F800F027F8002010BD00000020024022
:1021600070B504460D4D7D202978C000FEF730F98A
:1021700001460B480068FEF72BF900F005FC00282B
:1021800009D1042C07D200222146401E00F030F86D
:1021900000206C6070BD012070BD0000D4000020E4
:1021A000E000002008B50A488169012211438161DD
:1021B000816911400091C26901040A43C261C0698A
:1021C000084000900348016810221143016008BDD7
:1021D0000010024000000140002805DBC106C90EC6
:1021E00001208840014908607047000000E100E0DC
:1021F00010B502F09DFB10BD10B50523DB01C3181F
:10220000016801220B241A65A4010023001903723E
:102210004031888A10438882888A0222104388824B
:10222000184610BDF8B5040007D00520C0012618D7
:10223000707C0025002802D005E00120F8BD35742F
:10224000204600F039F803207074206802F0C4FAC8
:10225000002001270AE02821414309194F7408741E
:10226000CD740D624D62401CC0B28D6221798142F5
:10227000F1D800220FE02820504300190146FF3119
:1022800041314D740A74FF300130CD7405664566E6
:10229000521CD2B2856620799042ECD807CC0C3C17
:1022A00002F091FA25737774A07A012802D12046B2
:1022B000FFF7A2FF0020F8BD08B500680649884274
:1022C00008D10648C2690121C9050A43C261C06933
:1022D0000840009008BD0000005C00400010024073
:1022E000F8B5044600683E4DC00352D5E8690026A3
:1022F000C00007D4E96928040143E961E9690140A4
:102300000126009137480168C90510D4016882157B
:1023100011430160FFF706FF074604E0FFF702FFE5
:10232000C01B642824D82F480068C005F6D5286A49
:1023300003273F02384020D06168394081421CD0D9
:10234000286A2A6AB843012109040A432A622A6AD0
:102350008A432A622862C0070FD0FFF7E3FE00908D
:1023600008E0FFF7DFFE0099411A1F48814201D9BA
:102370000320F8BD286A8007F3D5286A6168B8434E
:1023800008432862002E04D0E96901200007814338
:10239000E9612078C00705D0286BA168800880001B
:1023A000084328632078800605D5286B10218843D0
:1023B000E168084328632068800305D5286B8021E5
:1023C00088436169084328632088400505D5286B48
:1023D000402188432169084328630020F8BD00009C
:1023E000001002400070004088130000F8B50F464E
:1023F00006005ED03C4D2868C007C00FB84209D225
:10240000286840084000384328602868C007C00F8B
:10241000B8424ED13068354C81070CD5400704D501
:10242000606807210902084360606068F021884302
:10243000B168084360603078C0072BD0706801280D
:1024400010D0022810D0032811D021688907002954
:102450002FDA61688908890001436160FFF762FE35
:10246000009010E0216803E021688901EFE7616BCB
:102470008903ECE7FFF756FE0099411A1C48814298
:1024800001D90320F8BD60680C21084071688900FB
:102490008842EFD12868C007C00FB8420BD928681E
:1024A00040084000384328602868C007C00FB84281
:1024B00001D00120F8BD3078400706D560680721BB
:1024C00009028843F1680843606000F027F86168FA
:1024D000084A0906090F515CC840074908600320F3
:1024E000FFF73EFE0020F8BD002002400010024031
:1024F00088130000C44B0008E00000200448054990
:1025000000684968044A4905490F515CC840704752
:10251000E000002000100240D44B000870B5154ABE
:1025200051680C200B4603401348042B05D0134D73
:10253000082B03D00C2B00D1284670BD8B02104C09
:102540001B0FE45CD26A0E4B1207120F1033C90343
:102550009A5C890F022901D0032901D0002301E0F0
:10256000002328460021FDF751FE214602F0BAF96A
:1025700070BD00000010024000127A00006CDC0206
:10258000A44B0008FEB5040070D02078F94EFA4D37
:10259000C00748D068680007800F01281FD068680E
:1025A0000007800F022804D16868C003800F02284A
:1025B00015D06168012919D001208004002901D0BB
:1025C000052917D02968B14329602968814329600A
:1025D000606800281BD0FFF7A5FD074613E02868B8
:1025E000800320D560680028CED01CE028683043E6
:1025F0002860EDE7296801432960F7E7FFF792FDBE
:10260000C01B642870D828688003F7D50BE0FFF75B
:1026100089FD074604E0FFF785FDC01B6428F1D85B
:1026200028688003F7D4207880073FD568680007C2
:10263000800F14D068680007800F022804D16868F2
:10264000C003800F01280AD0E068002828681ED047
:10265000012108432860FFF765FD07460CE0286864
:1026600080070CD5E068012800D108E080E1FFF781
:1026700059FDC01B0228C5D828688007F7D52868EF
:10268000F82188432169C900084328600EE040080A
:1026900040002860FFF746FD074604E0FFF742FDD3
:1026A000C01B0228AED828688007F7D4207800071E
:1026B00023D5E0690028686A0FD0012108436862C9
:1026C000FFF730FD074604E0FFF72CFDC01B022892
:1026D00098D8686A8007F7D50FE040084000686224
:1026E000FFF720FD074605E0C3E0FFF71BFDC01B19
:1026F000022887D8686A8007F7D420780427400723
:10270000002861DA00200190E869C00008D4E96976
:10271000B8060143E961E969014001200091019097
:1027200096480168C90511D40168821511430160FA
:10273000FFF7F8FC009005E0FFF7F4FC0099401A61
:10274000642898D88D480068C005F5D5A068012890
:102750000AD0002801D0052811D0286A400840007E
:102760002862286AB84302E0286A012108432862E7
:10277000A068002812D0FFF7D5FC00900AE0286A74
:1027800038432862F0E7FFF7CDFC0099411A7C48F6
:1027900081426ED8286A8007F5D50DE0FFF7C2FCAC
:1027A000009006E0FFF7BEFC0099411A7448814290
:1027B0005FD8286A8007F5D40198002804D0E96919
:1027C000012000078143E9612078C00635D56069A2
:1027D00001280CD0401D686B24D038436863686BB7
:1027E000400840006863FFF79DFC074622E0686BE5
:1027F00038436863686B012108436863FFF792FC04
:10280000074604E0FFF78EFCC01B022831D8686B36
:102810008007F7D5686BF8218843A169C900084390
:1028200068630AE0B8436863F4E7FFF77BFCC01B0A
:1028300002281ED8686B8007F7D42078800637D529
:1028400068680007800F032814D068680007800FAD
:10285000022804D16868C003800F03280AD0206AC8
:102860000028686B16D030436863FFF75BFC0646B0
:102870000CE062E0686B80031AD5206A012877D1EA
:1028800016E0FFF74FFC801B022856D8686B8003C8
:10289000F7D50DE0B0436863FFF744FC064604E05B
:1028A000FFF740FC801B022847D8686B8003F7D4F1
:1028B000606A002866D069680907890F022942D03A
:1028C000012636060228286805D0B0432860FFF7A5
:1028D00029FC044633E0B0432860FFF723FC074699
:1028E00004E0FFF71FFCC01B022826D828688001DF
:1028F000F7D4E86A216B000900010843E862A16A85
:10290000E06A084369687B22D20391430843686008
:10291000286830432860FFF705FC044604E0FFF711
:1029200001FC001B022808D828688001F7D529E09F
:10293000FFF7F8FB001B022801D90320FEBD286821
:102940008001F5D41EE00128F8D06868E96A032206
:10295000D203A36A02409A420AD10907226B090FE7
:10296000914205D10F2189040840E16A884209D0CB
:102970000120FEBD00000100001002400070004078
:10298000881300000020F4E7094910B5401E884272
:1029900001D9012010BD074C60610321081F01F01F
:1029A000C7FF0020A06107202061002010BD0000AB
:1029B000FFFFFF0000E000E0F0B502462032137F89
:1029C000012B1ED001251577022353770668746802
:1029D000B3687027BC430F682743776000680A4CD0
:1029E000A04205D0AC07A04202D0084CA04204D1BE
:1029F00080244968A34319438160557700201077EC
:102A0000F0BD0220F0BD0000002C01400004004099
:102A100070B5040005D025462035687F002802D017
:102A200006E0012070BD00202877204600F014F851
:102A300002206877211D206801F07EF901204034D2
:102A4000A071A877E87720706070A070E0702071A6
:102A500060716877002070BDF8B50546294A0168A5
:102A60002948914206D18269C1140A438261806972
:102A7000084044E0254A9715914238D1C2690221A5
:102A80000A43C261C069234C08400090204820607E
:102A900000261020A6606060666127618020A66124
:102AA000E0608001E0612046FFF730F9002801D0A6
:102AB000FEF73EFDEC6265621548164C1430443456
:102AC00020601020A660606080202761E060C00068
:102AD000A6616061C000E0612046FFF717F9002899
:102AE00001D0FEF725FD2C632C626562F8BD0A4A11
:102AF0009142FBD1C1693943C161C069384000903E
:102B0000F8BD0000002C014000100240000400400D
:102B10001C000240940D002000200040014620319E
:102B20004A7F012A01D00120704702224A770068BB
:102B3000094A0121904205D08A07904202D0074AF3
:102B4000904204D182685207520F062A02D00268CE
:102B50000A43026000207047002C0140000400403E
:102B600001680A6A074B1A4207D10A6A9B101A4287
:102B700003D10A68520852000A60012120304177CF
:102B80000020704711110000F8B5054604462035B5
:102B9000287F0026012817D0012028770220687797
:102BA000226890687727FF23B8431B029843906000
:102BB0000868502838D00EDC20284FD006DC0028CA
:102BC0004CD010281ED149E00220F8BD302845D055
:102BD000402817D13AE060282ED0702819D0012261
:102BE0001203801A0FD090420CD1CB684A688968D2
:102BF000206801F071F92068816801229203114375
:102C0000816000E0012601206877002028773046A7
:102C1000F8BDCB684A688968206801F05DF92168D1
:102C2000886838438860EEE7CA684968206801F020
:102C300049FA5021206806E0CA684968206801F016
:102C400052FA6021206801F052F9DCE7CA6849684D
:102C5000206801F037FA40212068F4E72268014635
:102C60001046F0E710B500680449884205D100F02D
:102C7000F7FF03484168491C416010BD0004004053
:102C80002000002010B586B0044614216846FDF7E8
:102C90009DFB0D492068884214D10C4842690913F4
:102CA0000A434261406908400590032000900220D9
:102CB000019000200290039001200490694604488E
:102CC000FFF758F906B010BD0004004000100240A4
:102CD00000040048F8B5064604462036307F002739
:102CE0000D4601280ED001203077002A0CD0042A8E
:102CF0001BD0082A2FD00C2A3ED001270020307785
:102D00003846F8BD0220F8BD206801F0F9F82068C7
:102D100081690822114381612068826904218A4304
:102D20008261206881692A6912E0206801F024F933
:102D3000206882690121C9020A4382612068816991
:102D40000122920291438161206881692A691202FD
:102D500011438161D2E7206801F048F92068C16918
:102D600008221143C1612068C26904218A43C261FB
:102D70002068C1692A6912E0206801F073F92068AF
:102D8000C1690122D2021143C1612068C2690121D7
:102D900089028A43C2612068C1692A69120211430B
:102DA000C161ABE770B5040005D025462035687FCA
:102DB000002802D006E0012070BD002028772046C0
:102DC00000F014F802206877211D206800F0B4FF9D
:102DD00001204034A071A877E87720706070A0705F
:102DE000E070207160716877002070BD704700004E
:102DF00010B5054A0168914204D1007F042801D131
:102E000000F02EFF10BD00000004004070470000DD
:102E1000F8B5044600200D4600902146204620319A
:102E200040309446002D0AD0042D0DD0082D10D02E
:102E30004278022A12D04278012A11D075E08A7FA6
:102E4000022A0BD08A7FF7E7CA7F022A06D0CA7F00
:102E5000F2E70278022A01D00278EDE70220F8BDFD
:102E60006246002A61D0002B5FD00226474F484AB5
:102E7000002D09D0042D18D0082D27D046700C2D18
:102E800044D0012000907EE08E77606A8762606A9D
:102E9000C262616A3F480863226861463432606AF0
:102EA000FEF75EFF002840D121E0CE77A06A87625E
:102EB000A06AC262A16A3748086322686146383254
:102EC000A06AFEF74DFF00282FD115E00670E06ADA
:102ED0008762E06AC262E16A2E480863226861463E
:102EE0003C32E06AFEF73CFF00281ED109E0206872
:102EF000C168012252021EE02068C16801229202CC
:102F000019E02068C1680122D20214E0206B8762B8
:102F1000206BC262216B1F48086322686146403201
:102F2000206BFEF71DFF002801D00120F8BD2068AE
:102F3000C168012212031143C160012229462068A1
:102F400000F044FF14492068884205D0134A90429B
:102F500002D0134A904204D1426C0123DB031A438E
:102F6000426420680122884205D09107884202D03D
:102F70000C49884204D181684907490F062902D0CB
:102F80000168114301600098F8BD0000E73D0008AA
:102F90004D3E0008853E0008002C014000440140E1
:102FA0000048014000040040F8B500260D460446E4
:102FB000002907D0042D0DD0082D13D00C2D19D0C9
:102FC000012652E02068C168012252029143C1608B
:102FD000606A16E02068C168012292029143C160D4
:102FE000A06A0EE02068C1680122D2029143C1604C
:102FF000E06A06E02068C168012212039143C160C3
:10300000206BFEF711FE00222946206800F0DEFE4C
:103010001B491A4B20688A10984205D0194B9842D8
:1030200002D0194B98420AD1036A0B4207D1036AB6
:10303000134204D1436C0127FF03BB434364206860
:10304000036A0B4206D1016A114203D101684908A3
:1030500049000160214601202031002D07D0042DB8
:1030600007D04034082D06D060703046F8BD887710
:10307000FBE7C877F9E72070F7E70000002C014074
:1030800011110000004401400048014010B5040047
:1030900003D0E06F002802D007E0012010BD00211E
:1030A00078200155204600F027F82420E0672068AA
:1030B0000168490849000160606A002802D0204682
:1030C00001F0A6F9204601F09BFA0128E6D020681D
:1030D00041680922D20291434160206881682A2216
:1030E00091438160206801680122114301602046FC
:1030F00001F0F4F910BD000010B586B004461421AB
:103100006846FDF763F91149206888421CD11048D0
:103110008269012189030A43826182690A4005921A
:10312000426909010A434261406908400590C02094
:10313000009002200021019003200291049103904D
:1031400069460448FEF716FF06B010BD003801407E
:1031500000100240000400480749096B09684968EB
:10316000002804D041393F2903D801207047491E67
:10317000F9E7002070470000380C0020F8B505463C
:10318000007840281BD0192819D0072817D0092803
:1031900015D000266878484C002812D0002E6FD039
:1031A000217800296CD06968E268FF238A1A5F33AE
:1031B0009A427CD32269891AA02978D303E0012698
:1031C000E8E76968E160002801D03CA000E03DA08C
:1031D00000F0D2F9287800F0ADF800F0CDF93BA06E
:1031E00000F0CAF9287800F075F939A000F0C4F9A8
:1031F00029780127207845290ED0002813D0354A98
:103200000020135C994210D1401C6070FEF76CF9ED
:10321000FEF788FFA06047E0002802D00020207061
:10322000F6E70120FBE72CA043E0401CC0B20928D0
:10323000E7D3002E3CD068682061402902D01929CC
:1032400005D009E0A0781E2806D2C01C03E0A078B3
:10325000032801D9C01EA0706078082806D009286C
:1032600004D0072916D0092919D01DE0072902D05A
:10327000092906D00AE06079002807D0401E04E042
:1032800015E06079042801D2401C60716079FDF777
:1032900033FC09E0E078002806D0401E03E0E07827
:1032A000042801D2401CE070277100F08DFCF8BDAD
:1032B0000DA000F061F9F8BD000000205245504516
:1032C000415420004B455920000000002030780078
:1032D0000D0A0000A849000849474E4F5245443A9C
:1032E000204F46460D0A0000554E41535349474E64
:1032F000454420494E205630330D0A00014880696C
:10330000704700005000002010B5084C00202070CD
:10331000E070A0716071A0610548FFF7FFFB002815
:1033200001D0FEF705F90120207110BD50000020EA
:103330004C0D0020074A0021CB00D35C834203D10F
:10334000C800801840687047491C1429F4D302A0B3
:10335000704700001C4A0008554E4B4E4F574E0018
:1033600030B50C4A91795379994201D1002030BD92
:10337000094BCC001D5D0570E3185C7844705B68F8
:103380004360BFF35F8F491C4807400F90710120D5
:1033900030BD000050000020D409002001484068E2
:1033A000704700002000002010B5074C002020705E
:1033B000606006490A68D063096801204861FEF729
:1033C000B1FEA06010BD000020000020040D002010
:1033D00010B50D4C207800280AD0FEF7A3FEE16856
:1033E000401A142804D900F03BFC6068401C60605F
:1033F0002078002806D1FEF795FEA168884201D00A
:10340000012010BD002010BD20000020F3B581B0C8
:103410000D46FFF7DDFF002851D01E2D00D91E25D7
:1034200000246000261801986421805D6843FCF741
:10343000CFFF009001986421371878786843FCF733
:10344000C7FF0646B87864216843FCF7C1FF009ABD
:103450003104120211430143204618225043821CBA
:10346000184E002017231F1A0123BB400B4201D026
:10347000262300E013231718401CF3551828F1D316
:10348000641C432CCDD3104800210268D16302682C
:103490000125556100684162FEF744FE0B4CE06077
:1034A00025700B4B074A08210748FFF7B1FC00289D
:1034B00006D000F0D5FB6068401C60600020FEBDB7
:1034C0000120FEBDB0010020040D002020000020DE
:1034D0004A07000070B50446054D0009285C00F05D
:1034E00077FA2007000F285C00F072FA70BD000028
:1034F000BC4A00083EB500246D460A21FCF768FF6F
:1035000030312955641CE4B20028F6D104E0641E71
:10351000E4B2285D00F05CFA002CF8D13EBD00005A
:1035200010B50D4841780278914209D00B4B1B68C9
:10353000DC69240604D50A4C645C1C85491C417076
:10354000C9B2914207D18178002904D0002181704D
:1035500004A000F011F810BD6C0000201C0E00202B
:10356000140A00200D0A4C4F47204F564552464C36
:103570004F570D0A0000000010B5044602E0641C1D
:1035800000F026FA20780028F9D110BD3EB50024BD
:103590001649174800940194029412C00460042252
:1035A00044600121C2608160047444748474C474F2
:1035B0008A0244618261024618321171046208383D
:1035C000FEF782F9002801D0FDF7B2FF01200003C9
:1035D000019005200290009469460548FEF7B4F872
:1035E000002801D0FDF7A4FF3EBD000000240140EB
:1035F000380C002008B50C48416901221143416193
:10360000406901211040009000220920FEF7F0FDE2
:103610000920FEF7E1FD002211460A20FEF7E8FD31
:103620000A20FEF7D9FD08BD0010024030B587B072
:1036300014216846FCF7CAFE1E484269012149046C
:103640000A43426142690A400592426949000A43BD
:103650004261406909250840ED06059001220421D8
:103660002846FEF758FD0220002400900194694688
:1036700002942846FEF77EFC042000901120019061
:103680000294694603942846FEF774FC08200090D3
:10369000312000040190694602942846FEF76AFC36
:1036A000002211460620FEF7A3FD0620FEF794FD3A
:1036B00007B030BD0010024010B50A48084901604B
:1036C0002F21416000218160074A0161C260816150
:1036D000FFF79EF9002801D0FDF72AFF10BD00007A
:1036E000002000404C0D0020FFFF000010B586B008
:1036F00000240094174801940294039404941449FC
:10370000059401602F2184604160046144617C2143
:103710008461C160FFF77CF9002801D0FDF708FF44
:1037200001200003009069460A48FFF72DFA00289F
:1037300001D0FDF7FDFE202004A911C1054808397C
:10374000FFF73AF9002801D0FDF7F2FE06B010BDF0
:10375000002C0140BC0C002010B58EB00024079452
:10376000089409940A940B941C2168460C94FCF765
:103770002DFE2349234812C0046084603B2104616C
:1037800041600838FFF744F9002801D0FDF7D0FE6A
:1037900001200003079007A91A48FFF7F5F9002850
:1037A00001D0FDF7C5FE1748FFF7FCFA002801D04D
:1037B000FDF7BEFE0B940BA912480C94FFF7FCF822
:1037C000002801D0FDF7B4FE60200090019402941F
:1037D0000822694604940B48FFF77CFA002801D0C0
:1037E000FDF7A6FE0C2269460648FFF773FA00288B
:1037F00001D0FDF79DFE0348FFF744FA0EB010BD5F
:1038000000040040040D002010B50C480A49016076
:10381000E1214902416000218160C1600161816153
:10382000C1610C22016242614162FFF72FFC002856
:1038300001D0FDF77DFE10BD003801401C0E0020B8
:1038400010B50A480849016008210171022141713F
:10385000C171002141728172C172FEF7E3FC002840
:1038600001D0FDF765FE10BD005C0040A40E0020F5
:10387000F1B5424F00263878354600281AD07878BE
:10388000002817D10098FFF767FC002810D000240B
:103890000098001941003A48415A082902D939488C
:1038A000814200D36D1C35484279002A03D006E0DE
:1038B00001207870F8BD0A02C26101224271C36919
:1038C0000A02D21AD7173F0EBA181212D218C261C2
:1038D000D017000E801800120F1A3846FDF79AFA1A
:1038E000002F00DA7F42BE19641C402CD0D3009810
:1038F000FFF732FC002811D0B002204C000CE08011
:10390000E069C117090E08180002000C20816581CA
:10391000E0880C2806D9E0880C3804E0174901201B
:103920004870F8BD0020E178174A4900515A020258
:10393000101AFCF74DFDFF2800D9FF20217988429D
:10394000217905D9401A401C21794008401804E02B
:10395000081A0F3021790009081A2071FEF7E2FBDE
:103960000146E078FDF790F9FEF7DCFBE0602069A6
:10397000401C20610120A070F8BD00008C000020D8
:10398000200B0020F70F0000544B000870B50E4BC1
:103990005C799D79641C6407640FAC4203D198691B
:1039A000401C986170BD5D79EE00084DA8555879AE
:1039B000C000401941705879C00040194260BFF3FF
:1039C0005F8F5C7170BD000050000020D4090020A2
:1039D00010B507490B784C785A1CD2B2A24202D1DA
:1039E0000120887010BD034CE0540A7010BD000027
:1039F0006C000020140A00207CB503214902FCF76A
:103A0000E7FC0C0A0E46601C0621FCF7E1FC4800AE
:103A10000D4D0818411903226846FCF778FC600038
:103A200020184119F6B2032201A8FCF770FC3246B7
:103A300000990198FDF7A4FA694601908888897970
:103A4000090408437CBD0000074A0008044A516885
:103A500048034840410C414048014840506070478D
:103A60003000002070B5EFF3108472B604250926EB
:103A7000F606B5620320FDF7EDFAB5610A20FDF701
:103A8000E9FAFDF7A7FA054684F310883920FDF717
:103A9000E1FA284670BD70B504250926F606B56121
:103AA0000520FDF7D7FAFDF795FA00281DD0B5627D
:103AB000FF20E130FDF7CEFAEFF3108472B6B56166
:103AC0004620FDF7C7FAFDF785FA00280ED000253D
:103AD00084F31088FF209B30FDF7BCFA002D07D03F
:103AE000FDF778FA002803D0012070BD0125EFE72B
:103AF000002070BD13B56A460C461078FF21604364
:103B0000FCF766FC6A4610705078FF216043FCF7B2
:103B10005FFC6A4650709078FF216043FCF758FCC8
:103B200001066A461088090A08431CBD0146054A79
:103B300049004043511A10B548430349FCF748FC7B
:103B400010BD0000FD02000001FE000070B5FEF790
:103B5000E9FA194C606100F099F800256570A570CC
:103B60006571FDF787F96581E580144801684D624C
:103B70000068012545611249102009680860104855
:103B8000FDF786FD00280FD180220E490C48FDF775
:103B90009FFF002808D1FEF7C5FAE06025700748AE
:103BA000FEF7BCFF002805D06570A069401CA0612D
:103BB00000F06CF870BD00008C000020BC0C0020F0
:103BC000380C0020200B002010B5124C2078002863
:103BD00001D011A000E014A0FFF7CEFC6078FFF741
:103BE00089FC15A0FFF7C8FCA078FFF783FC16A09E
:103BF000FFF7C2FCE078401CFFF77CFC15A0FFF744
:103C0000BBFC6079401CFFF775FC14A0FFF7B4FC07
:103C100010BD0000000000205354415445204F4E79
:103C2000204D4F44453D00005354415445204F46DC
:103C300046204D4F44453D00204252494748544E8E
:103C40004553533D00000000252053504545443D59
:103C5000000000002053454E533D00000D0A0000B7
:103C600010B508210748FFF79FF9064800240168AE
:103C7000CC63006801214161FEF754FA0249886073
:103C80000C7010BD040D00202000002070B5064C03
:103C9000002525700548FEF763FF0548FDF768FF1E
:103CA0002571FCF7DFFF70BD8C000020BC0C0020EC
:103CB000380C002010B5FEF73BFA10BD10B598B0D7
:103CC00034216846FCF782FB00240D940E940F9477
:103CD000182111A81094FCF779FB302000900120E6
:103CE000089005901020069009946846FEF74AFC5B
:103CF000002801D072B6FEE707200D9003200E9039
:103D00000F94012110940DA8FEF770FB002801D03C
:103D100072B6FEE7064816941190139411A8FEF7A8
:103D2000DFFA002801D072B6FEE718B010BD00001F
:103D30000100020070470000F0B502681E4B01242C
:103D4000A4071E4D984203D0A04201D0A84203D13F
:103D50007026B2434E683243194E1A4F98420AD029
:103D6000A04208D0A84206D0174CA04203D0B042CF
:103D700001D0B84204D103242402A243CC682243D8
:103D80008024A2434C69224302608A68C2620A68A6
:103D90008262984203D0B04201D0B84201D1096991
:103DA0000163012141610169C90703D00169490823
:103DB00049000161F0BD0000002C014000040040FA
:103DC00000440140004801400020004010B5CB06EF
:103DD000DB0E0121046A99408C430462016A9A4017
:103DE0001143016210BD10B5446A0121626A82422A
:103DF00006D121778069002822D13E2001551FE09D
:103E0000A26A824207D1022222778069002817D154
:103E10003F20015514E0E26A824207D10422227752
:103E2000806900280CD14020015509E0226B8242B4
:103E300006D1082222778069002801D1412001554E
:103E40002046FEF7D5FF0020207710BD10B5446A4C
:103E5000616A814201D101200DE0A16A814201D154
:103E6000022008E0E16A814201D1042003E0216BD5
:103E7000814201D1082020772046FEF7C7FF0020AD
:103E8000207710BD10B5446A0121626A824203D1D5
:103E900021773E20015519E0A26A824204D1022016
:103EA00020773F20015511E0E26A824204D10420CC
:103EB00020774020015509E0226B824204D108207E
:103EC00020774120015501E03D2001552046FEF7B5
:103ED000C9FE0020207710BD30B58468FF252D0273
:103EE0001B021343AC430B432343836030BD826802
:103EF00070239A430A4307210A43826070470000F7
:103F0000F0B5056A026A520852000262436882698B
:103F10007024A24392080C68920014430222954335
:103F20008A68134E2A43114DA84204D0B04202D0F1
:103F3000104FB84206D10827BA43CF68174304226E
:103F400097433A46A84204D0B04202D0094DA84255
:103F500006D103252D02AB434D691D438B692B43CD
:103F600043608461496841630262F0BD002C0140F6
:103F7000004401400048014070B5046A026A102301
:103F80009A4302624368826973252D02AA430D6831
:103F90002D021543202294438A6812012243104CBB
:103FA000A04208D11446CA688026B44312012243B5
:103FB0004024A24305E00B4CA04202D00A4CA04290
:103FC00008D10324A402A3434C69A4001C438B69B9
:103FD0009B0023434360856149688163026270BD31
:103FE000002C0140004401400048014070B5056AC2
:103FF000026AFF2301339A4302624268C369702454
:10400000A3439B080C689B001C4301235B029D4358
:104010008B681B022B43104DA84208D11D46CB686C
:10402000C614B5431B022B430515AB4305E00B4DEE
:10403000A84202D00A4DA84208D103252D03AA4365
:104040004D692D0115438A6912012A434260C461FA
:104050004968C163036270BD002C01400044014007
:104060000048014030B5046A026A01231B039A43E9
:1040700002624368C26973252D02AA430D682D02AE
:1040800015430122520394438A68120322430A4CC7
:10409000A04205D0094CA04202D0094CA04205D153
:1040A0000124A403A3434C69A40123434360C561D5
:1040B00049680164026230BD002C014000440140A7
:1040C0000048014030B5036A046A64086400046271
:1040D0008469F025AC43120122430A24A3430B4315
:1040E0008261036230BD30B5046A036A1025AB43B8
:1040F000036283690F252D031203AB431A43A023E8
:104100009C43090121438261016230BD10B586B034
:1041100000F0FEF8002808D00322354902A8FCF779
:10412000F6F869460889897A5EE000F0D5F800283B
:104130000FD000F0C1F8FF212131884213DC2C4957
:104140000322093904A8FCF7E2F86946088A897C49
:104150004AE027490322C91C03A8FCF7D8F869469E
:104160008889897B40E001214902884209DB204996
:104170000322C91E05A8FCF7CAF86946888A897D0A
:1041800032E0FF219131884211DCFF3821380102F1
:10419000081A7021FCF71CF9154904460322891FEF
:1041A00001A8FCF7B4F812490322093910E0FF38DE
:1041B00091380102081A7021FCF70AF90C490446EB
:1041C0000322C91E01A8FCF7A2F809490322891F8E
:1041D0006846FCF79CF8224601990098FCF7D0FE4F
:1041E000694600900888897806B00904084310BD24
:1041F000E149000810B500F09DF804461FA0FFF744
:10420000BBF900F063F81F4980000858FFF7B4F9C4
:1042100000F062F800281ED01BA0FFF7ADF9002CBB
:1042200003DA1BA0FFF7A8F964422009FFF762F93F
:1042300018A0FFF7A1F92007000F642148430409E3
:104240000A2C02D214A0FFF797F92046FFF752F983
:1042500012A0FFF791F912A0FFF78EF900F070F8A5
:10426000FFF748F900F054F8002802D00FA0FFF73C
:1042700083F910A0FFF780F910BD000054454D50A0
:1042800020000000B4490008204C4153543D000078
:104290002D0000002E000000300000004300000050
:1042A0002053414D504C45533D00000020464155A0
:1042B0004C5400000D0A000003488069C117090F23
:1042C0000818001100B270477000002001484078C3
:1042D000704700007000002001488078704700009F
:1042E0007000002010B5094C002020706070012182
:1042F000E170A0706061A061E080FDF713FF2061B4
:10430000A06004200921C906886110BD700000204A
:1043100010B5FDF707FF05490969401A04498842AD
:1043200001D3012010BD002010BD0000700000204E
:104330008813000001490620085E704770000020C5
:1043400001484069704700007000002070B5FDF71B
:10435000E9FE2D4C002521780226002904D00129F0
:104360001FD0022938D139E0E178002905D1A168B0
:104370007D22411AD200914210D3E570A060FFF770
:104380008AFB00280BD0CC2000F086FA442000F0F5
:1043900083FAFDF7C7FEE0600120207070BD6670F3
:1043A00070BDE168401A5F21C9008842F8D3FFF769
:1043B00059FB00280CD0FFF76EFB00280BD0CC2057
:1043C00000F06AFABE2000F067FA2571267070BD11
:1043D0000520607000E06670257070BD00263546CF
:1043E000FFF740FBA840C0B26D1C0643EDB2082D9C
:1043F000F6D3064920790E54401CC0B2207109281A
:10440000EBD1FDF797F870BD70000020140B002071
:1044100010B5818C090707D501684A680123DB03C1
:104420009A43436B1A434A60818CC90707D00168DD
:104430004A6801235B049A43836A1A434A60818C69
:10444000890707D501684A6801231B049A43C36A98
:104450001A434A60818C490707D501684A680123DD
:104460009B049A43036B1A434A60818CC90607D5A3
:104470000268916801231B039943836B1943916080
:10448000818C890607D501688A6801235B039A43FA
:10449000C36B1A438A60818C490612D503685A6837
:1044A00001210905046C8A4322435A60026C8A4246
:1044B00007D10268516803235B059943436C194394
:1044C0005160818C090607D501684A680123DB0425
:1044D000806C9A4302434A6010BD0000FEB5074657
:1044E0000025803704467D60FDF71CFE01902068A2
:1044F0000068264600076036002819DA2748009031
:104500000121002249052046019B00F011F90028F5
:104510000ED0EFF31080012181F3108821680A6822
:1045200080239A430A6080F310882020E06729E006
:1045300020680068400728D5184800900121002213
:1045400089052046019B00F0F3F800281DD0EFF309
:104550001080012181F3108821680A68FF2321332C
:104560009A430A6080F31088EFF31080012181F3F1
:10457000108821688A68520852008A6080F3108887
:104580002020386035760320FEBD2020E0673860AB
:104590002566656635760020FEBD0000FFFFFF0141
:1045A00010B5EFF31081012282F3108802681368BE
:1045B000FF242134A343136081F31088EFF31081AB
:1045C000012282F31088026893685B085B009360A5
:1045D00081F31088016E01290BD1EFF310810122C4
:1045E00082F31088026813681024A343136081F3D8
:1045F0001088202280210A5000210166816610BDAA
:1046000070B5044680682169E26908436169002544
:1046100011432268084311683F4B19400143116060
:1046200021684868032212039043E26810434860FF
:10463000A169206A084321688A680B231B029A43F8
:1046400002438A6035492068884210D13448006BA3
:104650008007800F0ED0012805D0022805D003283E
:104660000AD1022109E0042107E0082105E02D49D3
:10467000884201D1002100E010210120E369C0033C
:10468000294A2A4E834222D1002906D0022907D086
:10469000042907D0082935D108E0FDF72FFF03E0F2
:1046A000104603E0FDF73AFF002830D06168400073
:1046B0004A088018FBF78CFE01461039B14221D818
:1046C0001A49491C01400007400F08431DE000291A
:1046D00006D0022907D0042907D0082912D108E002
:1046E000FDF70CFF03E0104603E0FDF717FF00287D
:1046F0000DD061684A081018FBF76AFE01461039B0
:10470000B14201D9012502E080B22168C8600020D1
:10471000A066E066284670BDF369FFEF00380140EF
:10472000001002400044004000127A00EFFF000039
:10473000FFB506468036054681B00F460446603513
:1047400034E00A98401C31D0FDF7ECFC0499411A82
:104750000A98814218D8002816D0206801684907B5
:1047600024D5802F22D0402F20D0C169C94309070A
:104770000CD4082707622046FFF712FF776000205D
:104780002876012005B0F0BD0320FBE7C069C043D7
:1047900000050BD401202168C00208622046FFF703
:1047A000FFFE2020706000202876EDE72068C169B8
:1047B0003846884305D0002103988142C1D00020AB
:1047C000E0E70121F8E7012140300180002101806C
:1047D00081800182084670474030034902888A433D
:1047E000028000207047000080BF0000F8B5C400C0
:1047F00040260F460546502901D3FF2004E0380229
:10480000C01B5021FBF7E4FD002F02D0002800D18F
:1048100001200021002D05D00A02521AB24205D90A
:10482000931B04E01B4B00225A542BE000239C46B0
:10483000184B5F5C002F0ED0644501D800275F54F1
:104840005B5C0027002B0DD0944202D9A71A402FA1
:1048500005D2402706E09442F2D90127EFE7FF2F67
:1048600000D9FF270B4B08335A5CBA4205D2BB1A5A
:10487000834200D90346D21804E0D31B834200D9F7
:104880000346D21A034B08335A54491C0829C1D392
:10489000F8BD000040000020F8B506460025F707E7
:1048A000FF0FEFF3108472B604200921C906886255
:1048B000002F01D0062000E03C20FCF7CBFB0420B9
:1048C0000921C906886184F31088002F01D0402097
:1048D00000E00A20FCF7BEFB6D1C7608EDB2082D47
:1048E000DDD3F8BDF8B5040C8BB2264682B25E4328
:1048F0000D0C1046370C58433604801900217941BD
:1049000016466E43370C36048019794126466E43AD
:104910008919F8BD30B47446641E2578641CAB4216
:1049200000D21D46635D5B00E31830BC18470000F1
:104930008307FF22DB0E9A408907090E9940002861
:1049400008DB830809489B001B181868904308433C
:10495000186070470007000F0838830804489B0060
:104960001B18D86990430843D861704700E400E001
:1049700000ED00E0FDF7E4FBFFF7A0F9FEF756FEBF
:10498000FEF738FEFEF7B2FEFEF73EFFFEF758FFD9
:10499000FEF7E2FEFEF790FEFEF7F8FDFBF7F0FEF5
:1049A000FBF728FFFCE700000C185E081C5A425277
:1049B0004A000000F44B0008FC4B0008E84B0008DC
:1049C000004C0008DC4B0008144C0008F44B0008B5
:1049D000FC4B00080C4C00080000FF00FF00FF002B
:1049E00000300040000000FF600CFFD28C02030486
:1049F0000608FF0000FF6000FFFF0000FF0000004E
:104A0000FF4B0082B400FFFF0000FFFF0000FF002B
:104A100000FFFF0000FFFF00FF0000004500000056
:104A20005C4C0008470000007C4C0008440000007B
:104A3000744C000840000000204C000843000000B7
:104A4000544C000807000000644C000815000000EA
:104A5000844C0008090000006C4C0008160000009F
:104A6000284C000819000000244C00080D0000002C
:104A7000504C00080C0000002C4C000818000000EE
:104A8000304C00085E000000344C000808000000B4
:104A9000384C00081C0000003C4C00085A00000084
:104AA000404C000842000000444C00085200000046
:104AB000484C00084A0000004C4C000830313233AA
:104AC0003435363738394142434445460000010009
:104AD00002000300040005000600070107020703A7
:104AE0000704070507030603050304030303020382
:104AF000010501050205030504050505060807086B
:104B00000608050804080308020801080009040A49
:104B1000040B040C040C050C0609070A070B070C10
:104B2000070F070F060F050F040F030F020F010FEA
:104B300000100011001200130017001701170217D0
:104B4000031704170517061A07190718071707167A
:104B5000071507004001C800800050003000000029
:104B60000000000000000000000000000000000045
:104B700000000000000000009000640040002400DD
:104B800010002C01FA00C80096006400000000002C
:104B90000000000000000000000000000000000015
:104BA0000000000002030405060708090A0B0C0DAB
:104BB0000E0F10100102030405060708090A0B0C6A
:104BC0000D0E0F10000000000000000001020304A1
:104BD0000607080900000000010203044241445F87
:104BE00044415441000000004E4F5F444556494344
:104BF0004500000057414954494E47004F4B0000C3
:104C00004352435F4552524F520000004641554CBB
:104C1000540000004E4F545F52454144590000007B
:104C20002B0000002D0000003000000031000000CB
:104C300032000000330000003400000035000000A6
:104C40003600000037000000380000003900000086
:104C50004300000052455455524E0000504F5745F6
:104C6000520000004C45465400000000524947489D
:104C70005400000054455354000000004D454E556B
:104C800000000000504C415900000000AC4C0008EE
:104C900000000020E400000004010008904D00081E
:104CA000E4000020FC1400002001000800000000C7
:104CB00000000000000000000000000000000000F4
:104CC00000000000000000000000000000000000E4
:104CD00000000000000000000000000000000000D4
:104CE00025C93A710000000000000000000000002B
:104CF00000000000000000000000000000000000B4
:104D000000000000000000000000000000000000A3
:104D10000000000000000000000000000000000093
:104D20000000000000000000000000000000000083
:104D30000000000000000000000000000000000073
:104D40000000000000000000000000000000000063
:104D50000000000000000000000000000000000053
:104D60000000000000000000000000000000000043
:104D70000000000000000000000000000000000033
:104D800001000000040000000000000000127A0092
:04000005080000C12E
:00000001FF
